:020000020000FC
:200000000040003408408C140800683A0000000000000000000000000000000000000000DA
:20000800DEFFED04DFC00015D8400215D8800315D8C00415D9000515D9400615D98007156A
:20001000D9C00815000B307ADA000915DA400A15DA800B15DAC00C15DB000D15DB400E15C4
:20001800DB800F15DBC01015D9401115EBFFFF04DBC012150009313A2880004C10000326FA
:200020002000022600000FC000000706DF401215E8BFFF17E93FFF0400001D001000021E21
:20002800EBFFFF04DBC01215D9401117DF401217DFC000172801707AD8400217D880031714
:20003000D8C00417D9000517D9400617D9800717D9C00817DA000917DA400A17DA800B17F2
:20003800DAC00C17DB000D17DB400E17DB800F17DBC01017DEC01304EF80083ADEFFF90429
:20004000DFC00615DF000515DF0005040001883A0005313AE0BFFE15E0BFFE17E0BFFB15BD
:20004800E03FFD1500800044E0BFFC15E0FFFB17E0BFFC171884703A10001426008000340C
:20005000108BB504E0FFFD17180690FA10C5883A10C0001700800034108BB504E13FFD17E7
:20005800200890FA1105883A10800104108000171009883A183EE83A0001883A0005313A3C
:20006000E0BFFF15E0BFFF1700000706E0BFFC171085883AE0BFFC15E0BFFD1710800044CB
:20006800E0BFFD15003FE106E0BFFB15E0BFFB17103FDB1E0001883A0001883AE037883A9A
:20007000DFC00117DF000017DEC00204F800283ADEFFFB04DFC00415DF000315DF00030454
:20007800E13FFF1500BFFFC4E0BFFD15E03FFE15D0A0ED1710000726D0A0ED17E0FFFD17B7
:20008000E1BFFE17E17FFF171809883A103EE83A00000206003DA03A0005883AE037883A23
:20008800DFC00117DF000017DEC00204F800283A06C00074DEC0001406800034D6AAC714AC
:2000900000800034108BAD1400C0003418CBF51410C00326100000151080010410FFFD366B
:200098000000E3800000EBC0003FFF06DEFFFD04DF000215DF000204008000341089F704F5
:2000A00010800017E0BFFE1500800044E0BFFF1500001406008000341089F704E0FFFF1719
:2000A80018C7883A18C7883A10C5883A10800017E0FFFE171880080E008000341089F704CE
:2000B000E0FFFF1718C7883A18C7883A10C5883A10800017E0BFFE15E0BFFF171080004480
:2000B800E0BFFF15E0BFFF17108008D0103FE91EE0BFFE17E037883ADF000017DEC00104DC
:2000C000F800283ADEFFF404DFC00B15DF000A15DF000A040080007410840804E0BFF91506
:2000C800E0BFF9171080010400C0020410C00015E0BFF9171080020400FFFFD410C000152D
:2000D000E0BFF9171080030400FFFFD410C00015E0BFF9171080010400C0010410C0001525
:2000D800000026C0E0BFF9171080040410000015E0BFF91710800417E0BFFD15E0BFF917FC
:2000E00010800517E0BFFE15E0BFFE171004943AE0BFFE15E0FFFE17E0BFFD171884B03A2D
:2000E800E0BFFA15E0BFFA170084303AE0BFFB1501400504E13FFB17000048C0E0BFFC15C9
:2000F000E17FFC17010000342109D20400004F0000BFEA84E0BFFF0500BFE044E0BFFF4563
:2000F800E0BFFF0310803FCC100B883A010000342109D80400004F00E0BFFF4310803FCCC9
:20010000100B883A010000342109DD0400004F00E0FFFF0400800044D8800215E0BFFF843C
:20010800D880011500800084D8800015180F883A01800084000B883A01000074210400049F
:2001100000013780E0BFFF8310803FCC100B883A010000342109E20400004F00E0BFFFC389
:2001180010803FCC100B883A010000342109E70400004F000005883AE037883ADFC001175F
:20012000DF000017DEC00204F800283A0005883A2000072620C0004C2008D07A18000126DA
:200128001145883A294B883A203FFA1EF800283AF800283ADEFFFD04DFC00015D98001153D
:20013000D9C0021520C00217018000343182BC0419800115280D883A21400217D9C0010420
:2001380000005A80DFC00017DEC00304F800283ADEFFFC04DFC00015D9400115D9800215E8
:20014000D9C0031500800034108AC80410800017014000342942BC0410C00217D980010446
:2001480019400115200B883A110002170000AD40DFC00017DEC00404F800283ADEFFFB0492
:20015000DC800315DC400215DC000115DFC004152025883A2823883AD98000053821883AB1
:2001580004000A0E8880011701C00044D80D883A880B883A9009883A103EE83A843FFFC4F9
:20016000103FF72600BFFFC4000001060005883ADFC00417DC800317DC400217DC0001176A
:20016800DEC00504F800283ADEFFE504D8C00804DDC01815DD801715DD401615DD0015156A
:20017000DCC01415DC801315DC401215DC001115DFC01A15DF0019152029883A2823883AEE
:20017800382D883AD9800F150021883AD8000E15D8000A15002B883A0027883A0025883A31
:20018000D8000C15D8000B15002F883AD8C00915D8C00F171900000320803FCC1080201C76
:2001880010BFE00410011E2600C00044B8C014261DC00216B80006260001150601400084DF
:20019000B9401D26014000C4B9402B2600011006014009441140FC2688800117D9000005AE
:2001980001C00044D80D883A880B883AA009883A103EE83A1000D81E840000440001040692
:2001A00001400C041140FA260140094411400A1ED880000588800117B80F883AD80D883AC9
:2001A800880B883AA009883A103EE83A1000CA1E840000440000F50625FFF404BDC03FCCA8
:2001B00000C002441DC0093600BFFFC490800426014002849009883A000048C00000010620
:2001B8000005883AB8A5883A0000E20601400B841140E42605C00084213FF40427003FCC5B
:2001C00000C002441F00093600BFFFC498800426014002849809883A000048C000000106BE
:2001C8000005883AE0A7883A0000D90600C01B0410C0D226013FFFC499000226D8000B15C5
:2001D0000000010604C0004401001A441100162620800916010018C41100882601001904DB
:2001D80011001126010016041100C81E00C00044D8C00E150000150601001CC41100982623
:2001E0002080041601001BC41100C01E0540020400000F0601001D4411000D2601001E044D
:2001E80011000A260000B906D8C00A17B700010418000726DF000D15B5C00017B800080EE2
:2001F00005EFC83A024000440000060605400404B0C00104D8C00D15B5C00017D8000A1568
:2001F8000013883AD839883AB8001726A80B883AB809883ADA4010150000D140A80B883A8D
:200200001009883A102D883A000048C0B885C83A00C00244DA4010171880021610800C0426
:2002080000000506D8C00E171800022610800DC400000106108015C4E0800005B02F883AF7
:20021000E7000044003FE806E6EFC83A9DC5C83A0080090EE085883A01400C04D8C0091774
:20021800E009883AE0C0032EE700004421400005E0BFFA1EE6EFC83AD8C00B174DD1883A91
:20022000922DC83A1800162648000A2600800B44D88008058880011701C00044D980080473
:20022800880B883AA009883A103EE83A10004A1E840000440580070EB00F883A01800C049A
:20023000880B883AA009883A000053C01000421E85A1883AE02D883ABF2FC83A000020069E
:200238000580090EB00F883A01800804880B883AA009883ADA401015000053C0DA401017A9
:200240001000351E85A1883A483FF22600800B44D88008058880011701C00044D9800804F6
:20024800880B883AA009883A103EE83A10002A1E84000044003FE706B5BFFFC4B0800003B0
:2002500001C00044D9800804D880080588800117880B883AA009883A103EE83A10001E1E23
:200258008585C83AB5C9883AE085883A013FF2161021883ADD800D17000044060080004449
:200260001480080E95FFFFC4B80F883A01800804880B883AA009883A000053C010000E1E58
:2002680085E1883AB080001701C00044D80D883AD880000588800117880B883AA009883A1E
:20027000B5C00104103EE83A1000031E84000044B82D883A00002D0600BFFFC400003106F8
:20027800B5C00017B7000104B809883A0000BA809091C83A102D883A0200090E400F883A15
:2002800001800804880B883AA009883ADA001015000053C0DA001017103FEF1E8221883A3D
:2002880088800117B00F883AB80D883A880B883AA009883A103EE83A103FE71E85A1883AC2
:20029000E02D883A0000110600C0004404FFFFC4D8000E15D8C00A15054002849825883AA2
:20029800D8000C15D8000B15182F883A00000806DDC00B1505C000840000050600C0004429
:2002A000D8C00C1505C000C400000106002F883AD8C00F1718C00044D8C00F15003EDC064E
:2002A8008005883ADFC01A17DF001917DDC01817DD801717DD401617DD001517DCC014179F
:2002B000DC801317DC401217DC001117DEC01B04F800283A00800034108AC804300F883A2D
:2002B800280D883A200B883A1100001700005A812880000B1080020C100021262880008F60
:2002C000DEFFFA04DC000015DFC00515DD000415DCC00315DC800215DC4001152821883A3F
:2002C800100012162027883A3025883A3823883A0501000404400B0E880F883AA440010EEE
:2002D00001C100048140008F900D883A9809883A0000BC400080050E88A3C83A90A5883A83
:2002D800003FF4060005883A000007068080000B108010148080000D00BFFFC400000206A3
:2002E00000BFFFC4F800283ADFC00517DD000417DCC00317DC800217DC400117DC0000171D
:2002E800DEC00604F800283A2005883A10C000071800022610800044003FFC061105C83AC9
:2002F000F800283ADEFFFD04DC00001504000034DC400115840BAD042023883A2809883A23
:2002F800300B883A380D883ADFC00215800000150000F78000FFFFC410C0031E80C0001716
:200300001800012688C00015DFC00217DC400117DC000017DEC00304F800283A20001B1612
:20030800000F883A28001616200D883A29001A2E0080080400C000440000010610000D2676
:20031000294B883A10BFFFC418C7883A293FFB360005883A180007260005883A314002364F
:20031800314DC83A10C4B03A1806D07A280AD07A183FFA1E380001260085C83AF800283AF4
:20032000014BC83A39C0005C003FE7060109C83A01C00044003FE30600C00044003FEE067E
:2003280020001716000F883A2005883A280012162900162E0180080400C00044000001065B
:2003300030000A26294B883A31BFFFC418C7883A293FFB36180005261806D07A11400136F7
:200338001145C83A280AD07A183FFB1E380001260085C83AF800283A014BC83A003FEC06A2
:200340000109C83A01C00044003FE70600C00044003FF106200D883A2900152E2800141679
:200348000080080400C000440000020610000E2628000516294B883A10BFFFC418C7883A0D
:20035000293FFA36180008260005883A31400236314DC83A10C4B03A1806D07A280AD07A1D
:20035800183FFA1EF800283A0005883AF800283A00C00044003FF4062005883A2900122E0E
:20036000280011160180080400C000440000020630000C2628000516294B883A31BFFFC407
:2003680018C7883A293FFA36180006261806D07A114001361145C83A280AD07A183FFB1EC4
:20037000F800283AF800283A00C00044003FF706DEFFFC04DF000315DF000304E13FFD158D
:20037800E17FFE15E1BFFF15E0FFFE17E0BFFD1718800C2600000806E0BFFE1710C0010436
:20038000E0FFFE15E0FFFD1719000104E13FFD1518C0001710C00015E0FFFE17E0BFFF17AB
:2003880018BFF51E0001883AE037883ADF000017DEC00104F800283ADEFFFE04DFC0011548
:20039000DF000015D839883A01800034318AD204014000342949F70401000034210AD20428
:200398000000DD000180003431808C04014000342940080401000034210008040000DD0049
:2003A000018000343189F704014000342949D204010000342109D2040000DD0000017A0089
:2003A80000018E000001883AE037883ADFC00117DF000017DEC00204F800283ADEFFFD0481
:2003B000DFC00215DF000115DF0001040009883A00010B000001883A00010E8001800034C0
:2003B8003189EC04014000342949EC04010000342109EC040001CB40D0A0E717D0E0E8172C
:2003C000D120E917200D883A180B883A1009883A00003040E0BFFF150100004400016C8028
:2003C800E13FFF1700025340DEFFFE04DFC00115DF000015D839883A00800034108ACE04CF
:2003D000108000171000052600800034108ACE0410800017103EE83A000002060080003438
:2003D800108BAD04E037883ADFC00117DF000017DEC00204F800283ADEFFF904DFC00615A1
:2003E000DF000515DF000504E13FFD15E17FFE15E1BFFF15E0BFFD1710000816014003049A
:2003E800E13FFD17000048C01007883A00800034108A67041885883A000001060005883AFA
:2003F000E0BFFB15E0BFFB1710002126E0BFFB1710800217108000CC10001826E0BFFB1781
:2003F800108000171080061710001426E0BFFB171080001710800617E0FFFF17180D883A66
:20040000E17FFE17E13FFB17103EE83AE0BFFC15E0BFFC171000070E0000F2801007883AF3
:20040800E0BFFC170085C83A1880001500BFFFC400000C06E0BFFC1700000A060000F28026
:200410001007883A0080034418800015000004060000F2801007883A0080144418800015A5
:2004180000BFFFC4E037883ADFC00117DF000017DEC00204F800283ADEFFFD04DFC002152A
:20042000DF000115DF000104E13FFF1501400034294ACB04E13FFF17000183C0E037883AA5
:20042800DFC00117DF000017DEC00204F800283ADEFFFD04DFC00215DF000115DF0001049C
:20043000E13FFF1500021FC0008000441001703A0001883AE037883ADFC00117DF000017CF
:20043800DEC00204F800283ADEFFFE04DFC00115DF000015D839883A01C0FA04000D883ABD
:20044000000B883A010000742104080400015EC001000034210A5204000107800001883A09
:200448000001883AE037883ADFC00117DF000017DEC00204F800283ADEFFFA04DFC00515B9
:20045000DF000415DF000404E13FFD15E17FFE15E1BFFF15E0BFFD1710800017E0BFFC154A
:20045800E0BFFC1710C00A04E0BFFD1710800217100F883AE1BFFF17E17FFE171809883AA9
:2004600000011F80E037883ADFC00117DF000017DEC00204F800283ADEFFFA04DFC00515C4
:20046800DF000415DF000404E13FFD15E17FFE15E1BFFF15E0BFFD1710800017E0BFFC1532
:20047000E0BFFC1710C00A04E0BFFD1710800217100F883AE1BFFF17E17FFE171809883A91
:2004780000012E40E037883ADFC00117DF000017DEC00204F800283ADEFFF704DF0008159D
:20048000DF000804E13FFC15E17FFD15E1BFFE15E1FFFF15E0BFFC1710800017E0BFF91521
:20048800E0BFFD17E0BFF815E0BFFE17E0FFFD171885883AE0BFFA1500001206E0BFF9177A
:2004900010800037E0BFFB15E0BFFB1710A0000C10000626E0BFF81710C00044E0FFF8157F
:20049800E0FFFB1710C0000500000606E0FFF817E0BFFD171880071EE0BFFF171090000CB3
:2004A0001000061EE0FFF817E0BFFA1718BFEB36000003060001883A000001060001883ADC
:2004A800E0FFF817E0BFFD1718800426E0FFF817E0BFFD171885C83A00000606E0BFFF17D0
:2004B0001090000C1000022600BFFD440000010600BFFEC4E037883ADF000017DEC001044E
:2004B800F800283ADEFFF904DF000615DF000604E13FFC15E17FFD15E1BFFE15E1FFFF15C3
:2004C000E0BFFC1710800017E0BFFA15E0BFFE17E0FFFD171885883AE0BFFB1500000E064C
:2004C800E0BFFA17108001041080003710BFFFEC10000926E0FFFA17E0BFFD171100004417
:2004D000E13FFD151080000310803FCC1080201C10BFE00418800035E0FFFD17E0BFFB17BC
:2004D80018BFEF36E0BFFE17E037883ADF000017DEC00104F800283ADEFFF404DF000B15B4
:2004E000DF000B04E13FFC15E17FFD15E1BFFE15E1FFFF15E0FFFF17E0BFFE171885883ABC
:2004E800E0BFF815E0C00217E08001171885883AE0BFF915E0800117E0BFF515E0BFFE1736
:2004F000E0BFF61500800044E0BFF715E0BFFC17108005041009883A00C00044E0BFFD17F6
:2004F8001884983A20800035E08003171080008C1000051EE0BFFC17108003041007883AB6
:200500000081000418800035E0BFFC1710800037E0BFFC171080020410800037E0BFFA1553
:20050800E0BFFA171080100C10000226E0BFF7171000031EE0BFFA171080200C103FF4268C
:20051000E0BFFA171080100C10001E26E0BFF71700801C0EE0BFF71710BFFFC4E0BFF715DA
:20051800E0FFFF17E0BFF81718800A2EE0BFFC17108001041009883AE0BFFF1710C0004465
:20052000E0FFFF151080000310803FCC2080003500000C06E0BFF51710000826E0BFF5171F
:2005280010BFFFC4E0BFF515E0BFFC17108001040007883A10C000350000020600BF000498
:20053000E0BFF715E0BFFA171080200C103FD026E0BFFC1710800037E0BFFB15E0BFF6177B
:2005380010000426E0BFF61710BFFFC4E0BFF61500000506E080021710C00044E0C0021532
:20054000E0FFFB1710C00005E0BFF71710800044E0BFF715E0BFF617103FBD1EE0C002171A
:20054800E0BFF91718BFBA1EE0BFFC171080020410800037E0BFFA15E0BFFA171080080C24
:20055000103FF926E08003171080004C1000041EE0BFFC17108003040007883A10C000357E
:20055800E0800117E037883ADF000017DEC00104F800283ADEFFFA04DFC00515DF000415B3
:20056000DF000404E13FFF150007883AE0BFFF1710C00035E0BFFF171080010410800037CC
:200568000005303AE0BFFD15E0FFFD1700BFFF841884703A1001703AE0BFFD17E0BFFC15BA
:2005700000020F40E0BFFC17E0BFFE15E0BFFE171001703A0001883AE037883ADFC00117F4
:20057800DF000017DEC00204F800283ADEFFF804DFC00715DF000615DF000604E13FFC15C7
:20058000E17FFD15E1BFFE15E1FFFF15E0BFFF17E0BFFB1500800034108BB2041080001732
:200588001000041E00800034108BB204E0FFFB1710C00015E0BFFC171080010400C001C47A
:2005900010C00035D8000015E1FFFC170180003431855D04E17FFE17E13FFD170001900060
:200598000001883AE037883ADFC00117DF000017DEC00204F800283ADEFFFE04DFC0011568
:2005A000DF000015D839883A00800034108ACE04108000171000052600800034108ACE0452
:2005A80010800017103EE83A0000020600800034108BAD04E037883ADFC00117DF0000178E
:2005B000DEC00204F800283ADEFFFB04DFC00415DF000315DF000304E13FFF15E0BFFF17D3
:2005B8001000081601400304E13FFF17000048C01007883A00800034108A67041885883A7E
:2005C000000001060005883AE0BFFD15E0BFFD1710001926E0BFFD17108000171080041795
:2005C80010000626E0BFFD171080001710800417E13FFD17103EE83A000001060005883A60
:2005D000E0BFFE15E13FFF170001FD40E0BFFE171000070E000167801007883AE0BFFE1797
:2005D8000085C83A1880001500BFFFC4000007060005883A00000506000167801007883AAD
:2005E000008014441880001500BFFFC4E037883ADFC00117DF000017DEC00204F800283A70
:2005E800DEFFFF04DF000015D839883A0001883AE037883ADF000017DEC00104F800283ABD
:2005F000DEFFFC04DF000315DF000304E13FFD15E17FFE15E1BFFF15E0BFFF17E037883A4A
:2005F800DF000017DEC00104F800283ADEFFFE04DFC00115DF000015D839883A00800034E1
:20060000108ACE04108000171000052600800034108ACE0410800017103EE83A000002064D
:2006080000800034108BAD04E037883ADFC00117DF000017DEC00204F800283ADEFFFA0473
:20061000DFC00515DF000415DF000404E13FFE15E17FFF15E0BFFE1710000326E0BFFE17EA
:20061800108002171000061E00017EC01007883A008005841880001500BFFA8400001306C1
:20062000E0BFFE17E0FFFF17E0FFFC15E0BFFD15E0BFFD17E0FFFC1710C00115E0BFFC1733
:2006280010C00017E0BFFD1710C00015E0BFFC1710800017E0FFFD1710C00115E0BFFC174F
:20063000E0FFFD1710C000150005883AE037883ADFC00117DF000017DEC00204F800283A87
:20063800DEFFFF04DF000015D839883A0001883AE037883ADF000017DEC00104F800283A6C
:20064000DEFFF904DFC00615DF000515DF000504E13FFC15E17FFD15E1BFFE15E1FFFF15DB
:20064800E0800217D8800015E1FFFF17E1BFFE17E17FFD17E13FFC170001AE00E037883AD2
:20065000DFC00117DF000017DEC00204F800283ADEFFF904DF000615DF000604E13FFE15EF
:20065800E17FFF15E0BFFF17E0BFFA150005303AE0BFFB15E0FFFB1700BFFF841884703A14
:200660001001703AE0BFFB17E0BFFC1500C00044E0BFFA171884983A1007883A00800034AF
:20066800108BB104108000171886B03A00800034108BB10410C0001500800034108BB10406
:2006700010800017100170FAE0BFFC17E0BFFD15E0BFFD171001703A0005883A0001883AED
:20067800E037883ADF000017DEC00104F800283ADEFFF904DF000615DF000604E13FFE15A6
:20068000E17FFF15E0BFFF17E0BFFA150005303AE0BFFB15E0FFFB1700BFFF841884703AEC
:200688001001703AE0BFFB17E0BFFC1500C00044E0BFFA171884983A0084303A1007883A4D
:2006900000800034108BB104108000171886703A00800034108BB10410C0001500800034BA
:20069800108BB10410800017100170FAE0BFFC17E0BFFD15E0BFFD171001703A0005883A38
:2006A0000001883AE037883ADF000017DEC00104F800283ADEFFFC04DF000315DF000304F1
:2006A800E13FFE15E17FFF15000530FAE0BFFD1500C00044E0BFFF171884983A1007883AAB
:2006B000E0BFFD171884703A1004C03A10803FCCE037883ADF000017DEC00104F800283ABC
:2006B800DEFFF504DFC00A15DF000915DF000904E13FFC15E17FFD15E1BFFE15E1FFFF155B
:2006C00000BFFA84E0BFF715E0BFFD17E0BFF815E0BFF817108008081000271E0005303AC1
:2006C800E0BFFB15E0FFFB1700BFFF841884703A1001703AE0BFFB17E0BFFA15008000341C
:2006D000108BB504E0FFF817180690FA10C5883AE0FFFE1710C0001500800034108BB504A8
:2006D800E0FFF817180690FA10C5883A10800104E0FFFF1710C00015E0BFFE171000052677
:2006E000E0BFF817100B883AE13FFC170001950000000406E0BFF817100B883AE13FFC17DE
:2006E80000019F00E0BFF715E0BFFA17E0BFF915E0BFF9171001703AE0BFF717E037883A5A
:2006F000DFC00117DF000017DEC00204F800283ADEFFF804DFC00715DF000615DC000515BB
:2006F800DF000604E13FFB15E17FFC15E1BFFD15E1FFFE15E1BFFE17E17FFD17E13FFC1757
:200700000001E740E0BFFA15E0BFFA171000221604000034840A6704E0BFFA1701400304E2
:200708001009883A000048C08085883A10C00017E0BFFB1710C0001504000034840A670479
:20071000E0BFFA17014003041009883A000048C08085883A1080010410C00017E0BFFB17FA
:2007180010C0011504000034840A6704E0BFFA17014003041009883A000048C08085883A08
:200720001080020410C00017E0BFFB1710C00215E13FFA170001FD400001883AE6FFFF048A
:20072800DFC00217DF000117DC000017DEC00304F800283ADEFFFB04DFC00415DF00031585
:20073000DF000304E13FFD15E17FFE15E1BFFF1501C07FC401800044E17FFD1701000034F8
:20073800210A6A040001BD0001C07FC4000D883AE17FFE1701000034210A67040001BD0079
:2007400001C07FC401800044E17FFF1701000034210A6D040001BD000001883AE037883A2F
:20074800DFC00117DF000017DEC00204F800283ADEFFFE04DFC00115DF000015D839883A8B
:2007500000800034108ACE04108000171000052600800034108ACE0410800017103EE83A50
:200758000000020600800034108BAD04E037883ADFC00117DF000017DEC00204F800283AF5
:20076000DEFFFB04DFC00415DF000315DC000215DF000304E13FFE15E0BFFE171080021785
:2007680010D00034E0BFFE1710C00215E03FFD150000230604000034840A6704E0BFFD1784
:20077000014003041009883A000048C08085883A10C00017E0BFFE17108000171880151E6A
:2007780004000034840A6704E0BFFD17014003041009883A000048C08085883A10800204F5
:200780001080001710000B0E01400304E13FFD17000048C01007883A00800034108A670473
:200788001887883AE0BFFE171880022600BFFCC400000A06E0BFFD1710800044E0BFFD15B5
:2007900000800034108ACD04108000171007883AE0BFFD1718BFD72E0005883AE6FFFF046C
:20079800DFC00217DF000117DC000017DEC00304F800283ADEFFF604DFC00915DF00081510
:2007A000DF000804E13FFD15E17FFE15E1BFFF1500BFFFC4E0BFF91500BFFB44E0BFFA151A
:2007A800E03FFB1501400034294ACB04E13FFD1700022200E0BFF815E0BFF8171000051E66
:2007B000E13FFD1700022B00E0BFF81500800044E0BFFB15E0BFF81710002B26E13FF8176B
:2007B80000023C40E0BFF915E0BFF9171000030EE0BFF917E0BFFA15000025060140030456
:2007C000E13FF917000048C01007883A00800034108A67041885883AE0BFFC15E0FFFE174C
:2007C8000090003410BFFFC41886703AE0BFFC1710C00215E0BFFB171000051EE13FFC17C3
:2007D0000001D800E0BFFA15E0BFFA1710001016E0BFF8171080031710000826E0BFF81758
:2007D80010800317E1FFFF17E1BFFE17E17FFD17E13FFC17103EE83A000001060005883AC7
:2007E000E0BFFA150000020600BFFB44E0BFFA15E0BFFA171000090EE13FF9170001FD4052
:2007E8000001D3001007883AE0BFFA170085C83A1880001500BFFFC400000106E0BFF91728
:2007F000E037883ADFC00117DF000017DEC00204F800283ADEFFFC04DFC00315DF000215DB
:2007F800DC000115DF000204E13FFE15E0BFFE17108000D01000111E04000034840A670453
:20080000E0BFFE17014003041009883A000048C08085883A1080020410000015040000343F
:20080800840A6704E0BFFE17014003041009883A000048C08085883A100000150001883A49
:20081000E6FFFF04DFC00217DF000117DC000017DEC00304F800283ADEFFFA04DF0005156B
:20081800DF000504E13FFF150005303AE0BFFC15E0FFFC1700BFFF841884703A1001703A50
:20082000E0BFFC17E0BFFB15E0BFFF17E0BFFD15E0BFFD1710800017E0FFFD1718C00117B4
:2008280010C00115E0BFFD1710800117E0FFFD1718C0001710C00015E0BFFD17E0FFFD1702
:2008300010C00115E0BFFD17E0FFFD1710C00015E0BFFB17E0BFFE15E0BFFE171001703A65
:200838000001883AE037883ADF000017DEC00104F800283ADEFFFB04DFC00415DF00031586
:20084000DF000304D0A00917E0BFFD15D0A0EC1710800044D0A0EC1500002E06E0BFFD17D2
:2008480010800017E0BFFE15E0BFFD171080040310803FCC10000426D0A0EC171000021E75
:20085000E0BFFD1710000405E0BFFD1710800217D0E0EC1718801D36E0BFFD171080040378
:2008580010803FCC1000191EE0BFFD1710800317E0FFFD1718C005171809883A103EE83A07
:20086000E0BFFF15E0BFFF171000031EE13FFD170002058000000D06E0BFFD1710C0021775
:20086800E0BFFF171887883AE0BFFD1710C00215E0BFFD1710C00217D0A0EC171880032EE8
:20087000E0BFFD1700C0004410C00405E0BFFE17E0BFFD15E0FFFD17D0A0090418BFCF1E3F
:200878000001883A0001883AE037883ADFC00117DF000017DEC00204F800283ADEFFFF0476
:20088000DF000015D839883A000170FA0001883AE037883ADF000017DEC00104F800283A97
:20088800DEFFFA04DFC00515DF000415DF000404E13FFE15E17FFF15E0BFFF1710800017DA
:20089000E0BFFC15E13FFE170000BA8010800044E0BFFD1500000D06E0BFFC171080021736
:20089800E0FFFD17180D883AE17FFE171009883A000255401000021EE0BFFC170000070690
:2008A000E0BFFC1710800017E0BFFC15E0FFFC17E0BFFF1718BFF01E0005883AE037883A03
:2008A800DFC00117DF000017DEC00204F800283ADEFFFB04DFC00415DF000315DF00030414
:2008B000E13FFF1500800034108AC90410800017E0BFFD1500003106E0BFFD1710800217EE
:2008B8001009883A0000BA80E0BFFE15E0BFFD1710C00217E0BFFE1710BFFFC41885883A18
:2008C0001080000310803FCC1080201C10BFE00410800BD81000031EE0BFFE1710BFFFC481
:2008C800E0BFFE15E0BFFE17E0FFFF171885883A1080000310803FCC1080201C10BFE004A9
:2008D00010800BE01000081EE0BFFE17E0FFFF171885883A1080000310803FCC1080201C55
:2008D80010BFE00410000A1EE0BFFD1710800217E0FFFE17180D883AE17FFF171009883A8D
:2008E000000255401000021EE0BFFD1700000806E0BFFD1710800017E0BFFD15E0FFFD1772
:2008E80000800034108AC90418BFCB1E0005883AE037883ADFC00117DF000017DEC0020424
:2008F000F800283ADEFFFA04DFC00515DF000415DC000315DF000404E13FFE1500BFFA0437
:2008F800E0BFFD15E03FFC150000210604000034840A6704E0BFFC17014003041009883AD2
:20090000000048C08085883A108000171000151E04000034840A6704E0BFFC1701400304F3
:200908001009883A000048C08085883AE0FFFE1710C0001500800034108ACD0410C0001746
:20091000E0BFFC171880040E00800034108ACD04E0FFFC1710C00015E0BFFC17E0BFFD1512
:2009180000000606E0BFFC1710800044E0BFFC15E0BFFC1710800810103FDC1EE0BFFD1727
:20092000E6FFFF04DFC00217DF000117DC000017DEC00304F800283ADEFFFE04DF0001155A
:20092800DF000104E13FFF15E0BFFF1710BFFE8410C0042818001A1E100690BA0080003431
:20093000108934041885883A108000171000683A000025100000251000002520000025202A
:200938000000252000002510000025180000252000002510000025100000252000002510BF
:200940000000251800002520000025200000251000800044000003060005883A0000010600
:200948000005883AE037883ADF000017DEC00104F800283ADEFFFE04000B883ADC0000155F
:20095000DFC001152021883A000258408009883A00027140218D883A218008262080000355
:2009580028C0000310C0022610C5C83AF800283A2100004429400044003FF7060005883A56
:20096000F800283ADEFFF504DD00051505000034DC800315DFC00A15DF000915DDC008152E
:20096800DD800715DD400615DCC00415DC400215DC000115D90000152825883AA50AC7046D
:20097000A44000178CC00C178C400C04980045269C0001170090003410BFFFC49D402217FE
:2009780085BFFFC480A1883A8421883A8421883AAC2F883A840002049C21883AB000271614
:2009800090000726A800041EB5BFFFC4BDFFFF04843FFF04003FF906B9002017913FFA1EFE
:200988009900011782000017213FFFC4B100021E9D8001150000010680000015403FF226AB
:200990009F000117A8000526008000441592983AA9404017494A703A2800021E403EE83A1B
:2009980000000906A90041174908703A2000041EB9400017D9000017403EE83A000002064A
:2009A000B9000017403EE83A99000117E13FCC1E89000017993FDC26003FC90600800034D0
:2009A8001080000410000F2699400117990000172800091E2000082689000015A8000226AA
:2009B000A809883A000000009809883A000000008CC00017003FBD069823883A2027883A66
:2009B800003FBA06DFC00A17DF000917DDC00817DD800717DD400617DD000517DCC0041740
:2009C000DC800317DC400217DC000117DEC00B04F800283ADEFFFD04DF000215DF000204B8
:2009C800E13FFF150001883AE0BFFF17E0BFFE15E0BFFE1710000226002AF0700000010634
:2009D000002AF0B0003FFF06656D6954616C65206465737025203D20736E20640000000A5B
:2009D8007469727761645F65305B6174203D205D000A78257469727761645F65315B61741F
:2009E000203D205D000A7825646165727461645F5D305B6125203D2000000A786461657239
:2009E8007461645F5D315B6125203D2000000A787665642F61746A2F61755F67000074728B
:2009F0007665642F61746A2F61755F67000074727665642F6C756E2F0000006C0000000031
:2009F8000000000000000000000000000000000000000000000000000000000000000000DF
:200A00000000000000000000000000000000000000000000000000000000000000000000D6
:200A08000000000000000000000000000000000000000000000000000000000000000000CE
:200A10000000000000000000000000000000000000000000000000000000000000000000C6
:200A18000000000000000000000000000000000000000000000000000000000000000000BE
:200A20000000000000000000000000000000000000000000000000000000000000000000B6
:200A28000000000000000000000000000000000000000000000000000000000000000000AE
:200A30000000000000000000000000000000000000000000000000000000000000000000A6
:200A380000000000000000000000000000000000000000000000000000000000000000009E
:200A4000000000000000000000000000000000000000000000000000000000000000000096
:200A480000000000000000000000000000000000000000000000000000000000000000008E
:200A5000000000000000000000000000000000000000000000000000000000000000000086
:200A580000000000000000000000000000000000000000000000000000000000000000007E
:200A6000000000000000000000000000000000000000000000000000000000000000000076
:200A680000000000000000000000000000000000000000000000000000000000000000006E
:200A7000000000000000000000000000000000000000000000000000000000000000000066
:200A780000000000000000000000000000000000000000000000000000000000000000005E
:200A8000000000000000000000000000000000000000000000000000000000000000000056
:200A880000000000000000000000000000000000000000000000000000000000000000004E
:200A9000000000000000000000000000000000000000000000000000000000000000000046
:200A980000000000000000000000000000000000000000000000000000000000000000003E
:200AA000000000000000000000000000000000000000000000000000000000000000000036
:200AA80000000000000000000000000000000000000000000000000000000000000000002E
:200AB000000000000000000000000000000000000000000000000000000000000000000026
:200AB80000000000000000000000000000000000000000000000000000000000000000001E
:200AC000000000000000000000000000000000000000000000000000000000000000000016
:200AC80000000000000000000000000000000000000000000000000000000000000000000E
:200AD0000000000000000000000000040000000500000003000000060000000100000008EB
:200AD800000000020000000C00000022000000070000000B000000510000002B0000000F31
:200AE0000000004C00000023000000150000001D0000002F000000200000000A0000004DAF
:200AE800000000410000003E000000130000005F0000003000000037000000210000000D68
:200AF000000000590000005C000000530000002A000000000000000000002928000029300A
:200AF80000002938000000000000000000000000000000000000000000000000000000007D
:200B00000000000000000000000000000000000000000000000000000000000000000000D5
:200B08000000000000000000000000000000000000000000000000000000000000000000CD
:200B10000000000000000000000000000000000000000000000000000000000000000000C5
:200B18000000000000000000000000000000000000000000000000000000000000000000BD
:200B2000000000000000000000000000000000000000000000000004000000000001000AA6
:200B2800000000000002000A0000000000000000000000000000000000000000000027C0BA
:200B3000000000000000000000001138000011980000000000000000000000000001104062
:200B380000002B2C00002B2C000027D0000000000000000000000000000017C00000000021
:200B400000000000000000000000297400000000000000000000297400000000000000005B
:200B48000000297400000000000000000000000000000000000000000000000000000000F0
:200B5000000000000000000000000000000000000000000000000000000000000000000085
:200B580000000000000000000000000000000000000000000000000000000000000000007D
:200B6000000000000000000000000000000000000000000000000000000000000000000075
:200B680000000000000000000000000000000000000000000000000000000000000000006D
:200B7000000000000000000000000000000000000000000000000000000000000000000065
:200B780000000000000000000000000000000000000000000000000000000000000000005D
:200B8000000000000000000000000000000000000000000000000000000000000000000055
:200B880000000000000000000000000000000000000000000000000000000000000000004D
:200B9000000000000000000000000000000000000000000000000000000000000000000045
:200B980000000000000000000000000000000000000000000000000000000000000000003D
:200BA0000000000000000000000028680000286800002B2400002B2400002974000029743D
:200BA800FFFFFFFF00000000FFFFFFFF00002B4000002B400000000000000000000000005F
:200BB000000000000000000000000000000000000000000000000000000000000000000025
:200BB80000000000000000000000000000000000000000000000000000000000000000001D
:200BC000000000000000000000000000000000000000000000000000000000000000000015
:200BC80000000000000000000000000000000000000000000000000000000000000000000D
:00000001FF
